:020000040800F2
:100000000028002021160008091400080F14000819
:10001000151400081B14000821140008000000003B
:10002000000000000000000000000000271400088D
:1000300033140008000000003F1400084B140008AF
:100040006916000869160008691600086916000894
:100050006916000869160008691600086916000884
:100060006916000869160008691600086916000874
:100070006916000869160008691600086916000864
:100080006916000869160008691600086916000854
:100090006916000869160008691600086916000844
:1000A0006916000869160008691600086916000834
:1000B00059140008691600080000000069160008BD
:1000C0006916000800000000000000006916000822
:1000D0000000000069160008691600080000000012
:1000E000691600086916000869160008000000007B
:1000F0000000000000000000000000000000000000
:0C01000000000000000000005FF808F1A3
:10010C0010B5054C237833B9044B13B10448AFF345
:10011C0000800123237010BD6C0000200000000043
:10012C00902C000808B5034B1BB103490348AFF3EF
:10013C00008008BD0000000070000020902C00081A
:10014C0080B400AF0C4B1B68002B02D10B4B01226F
:10015C001A600B4B1B68002B02D10A4B01221A6050
:10016C00094B1B68002B02D1084B01221A6000BFFF
:10017C00BD4680BC704700BF0C00002088000020EA
:10018C001C0000208C0000202C000020900000207F
:10019C0080B500AF1F4B1B681F4A13601F4B1B68B9
:1001AC001C4A136002211E4801F044FD03461A4606
:1001BC001A4B1A60174B1A68184B1B689A4226D1B7
:1001CC00144B1A68144B1B689A4220D1124B1A68B4
:1001DC00144B1B689A420ED00F4B1B68114A1360CC
:1001EC00104B1B68002B12D10F4B4FF4FA721A6094
:1001FC00FFF7A6FF0BE00C4B1B68013B0A4A136090
:10020C00094B1B68002B02D1064B01221A6000BF60
:10021C0080BD00BF0400002008000020000000206A
:10022C00000801400C0000203000002080B500AF19
:10023C001F4B1B681F4A13601F4B1B681C4A136023
:10024C0004211E4801F0F6FC03461A461A4B1A60AC
:10025C00174B1A68184B1B689A4226D1144B1A6814
:10026C00144B1B689A4220D1124B1A68144B1B6812
:10027C009A420ED00F4B1B68114A1360104B1B682F
:10028C00002B12D10F4B4FF4FA721A60FFF758FF84
:10029C000BE00C4B1B68013B0A4A1360094B1B68B3
:1002AC00002B02D1064B01221A6000BF80BD00BF9B
:1002BC00140000201800002010000020000801404D
:1002CC001C0000203000002080B500AF1F4B1B68C5
:1002DC001F4A13601F4B1B681C4A136008211E48E1
:1002EC0001F0A8FC03461A461A4B1A60174B1A6801
:1002FC00184B1B689A4226D1144B1A68144B1B6876
:10030C009A4220D1124B1A68144B1B689A420ED099
:10031C000F4B1B68114A1360104B1B68002B12D13A
:10032C000F4B4FF4FA721A60FFF70AFF0BE00C4BFD
:10033C001B68013B0A4A1360094B1B68002B02D156
:10034C00064B01221A6000BF80BD00BF24000020B4
:10035C002800002020000020000801402C00002074
:10036C003000002080B500AF01F07AF900F016F8EB
:10037C0000F09CF800F04EF8074802F0C3F8322069
:10038C0000F068FF642000F079FF142000F08AFF71
:10039C0000F06CFAFCE700BFD800002080B590B0EC
:1003AC0000AF07F1180328220021184602F062FC66
:1003BC003B1D00221A605A609A60DA601A610223AF
:1003CC00BB610123BB621023FB6200237B6307F13B
:1003DC001803184601F05EFC0346002B01D000F018
:1003EC00D5F80F237B600023BB600023FB60002348
:1003FC003B6100237B613B1D0021184601F0CAFEC6
:10040C000346002B01D000F0C1F800BF4037BD46B9
:10041C0080BD000080B586B000AF07F10803002254
:10042C001A605A609A60DA603B4600221A605A6081
:10043C001D4B4FF080421A601B4B41F63F725A60C5
:10044C00194B00229A60184B0922DA60164B0022D5
:10045C001A61154B00229A61134802F003F8034607
:10046C00002B01D000F092F84FF48053BB6007F1E1
:10047C00080319460C4802F099F90346002B01D0E9
:10048C0000F084F800233B6000237B603B46194658
:10049C00054802F061FB0346002B01D000F076F812
:1004AC0000BF1837BD4680BDD800002080B586B08F
:1004BC0000AF07F1080300221A605A609A60DA60F4
:1004CC00274B9B69264A43F004039361244B9B6999
:1004DC0003F004037B607B68214B9B69204A43F04B
:1004EC00080393611E4B9B6903F008033B603B6858
:1004FC00002247F6F0711B4801F0B3FB00227F216C
:10050C00194801F0AEFB0E23BB600023FB600123F6
:10051C003B6107F108031946124801F011FA47F63E
:10052C00F073BB600123FB6000233B6102237B6102
:10053C0007F1080319460B4801F002FA7F23BB6050
:10054C000123FB6000233B6102237B6107F108035D
:10055C001946054801F0F4F900BF1837BD4680BDB7
:10056C000010024000080140000C014080B582B030
:10057C0000AF786000F0AAFEFFF70AFEFFF756FE08
:10058C00FFF7A2FE00BF0837BD4680BD80B400AFA8
:10059C0072B600BFFEE7000080B500AF244B1B68AD
:1005AC00012B19D1322000F055FE224B1B68C3F1F0
:1005BC000103204A13601F4B1B68DBB21A46202133
:1005CC001D4801F04EFB1B4B1B68DBB21A464FF467
:1005DC008071194801F045FB184B1B68002B03D1A7
:1005EC00174B1B68174A1360164B1B6802211846E1
:1005FC0000F0FCFC00F010FE1E2000F0D5F80122EB
:10060C0040210D4801F02DFB01224FF400710A48E6
:10061C0001F027FB01228021074801F022FB012277
:10062C004FF48061044801F01CFB00BF80BD00BF8B
:10063C00C4000020B800002000080140B4000020D5
:10064C004C000020B000002080B500AF244B1B688C
:10065C00012B19D1322000F0FDFD224B1B68C3F198
:10066C000103204A13601F4B1B68DBB21A46402162
:10067C001D4801F0F6FA1B4B1B68DBB21A464FF40F
:10068C000071194801F0EDFA184B1B68002B03D1CF
:10069C00174B1B68174A1360164B1B68032118462F
:1006AC0000F0A4FC00F0B8FD1F2000F07DF8012242
:1006BC0020210D4801F0D5FA01224FF480710A482F
:1006CC0001F0CFFA01228021074801F0CAFA012279
:1006DC004FF48061044801F0C4FA00BF80BD00BF34
:1006EC00C4000020B800002000080140B400002025
:1006FC0050000020B000002080B500AF244B1B68D8
:10070C00012B19D1322000F0A5FD224B1B68C3F13F
:10071C000103204A13601F4B1B68DBB21A46802171
:10072C001D4801F09EFA1B4B1B68DBB21A464FF4B6
:10073C008061194801F095FA184B1B68002B03D106
:10074C00174B1B68174A1360164B1B68042118467D
:10075C0000F04CFC00F060FD202000F025F8012298
:10076C0040210D4801F07DFA01224FF400710A4836
:10077C0001F077FA01222021074801F072FA0122D8
:10078C004FF48071044801F06CFA00BF80BD00BFCB
:10079C00C4000020B800002000080140B400002074
:1007AC0054000020B000002080B483B000AF78600B
:1007BC002B4B01221A607B68202B31D07B68202BBD
:1007CC0042DC7B681E2B03D07B681F2B14D03BE0D4
:1007DC00244B1B68012B39D1224B00221A60224B6F
:1007EC001B680133204A13601F4B1B68632B2DDDE4
:1007FC001D4B00221A6029E01A4B1B68012B27D1D4
:10080C00184B00221A60184B1B680133164A1360F0
:10081C00154B1B68632B1BDD134B00221A6017E072
:10082C00104B1B68012B15D10E4B00221A600E4B7E
:10083C001B6801330C4A13600B4B1B68632B09DDDF
:10084C00094B00221A6005E000BF04E000BF02E083
:10085C0000BF00E000BF00BF0C37BD4680BC704736
:10086C00B40000208C000020B000002080B500AF48
:10087C00524B1B68042B00F2958001A252F823F016
:10088C00A1080008B3080008D30800081D090008D7
:10089C0067090008494B01221A60012210214848BF
:1008AC0001F0DFF987E000F0E1FD464B1B68012BFE
:1008BC007AD1444B00221A60434B00221A603F4B02
:1008CC0002221A6070E0FFF767FE3E4B1B68012B9B
:1008DC000DD13C4B00221A603B4B00221A60374B67
:1008EC0003221A6001221021354801F0BAF9374B66
:1008FC001B68012B5AD1354B00221A60344B1B68F4
:10090C00344A1360002210212D4801F0AAF94DE061
:10091C00FFF79AFE2B4B1B68012B0DD1294B0022A4
:10092C001A60294B00221A60244B04221A600122FF
:10093C001021234801F095F9244B1B68012B37D16A
:10094C00224B00221A60224B1B68234A13600022A0
:10095C0010211B4801F085F92AE0FFF7CDFE194B59
:10096C001B68012B0DD1174B00221A60164B00226D
:10097C001A60124B01221A6001221021104801F05A
:10098C0070F9124B1B68012B14D1104B00221A600A
:10099C000F4B1B68114A136000221021084801F00C
:1009AC0060F907E000BF06E000BF04E000BF02E012
:1009BC0000BF00E000BF00BF80BD00BF940000205E
:1009CC000008014088000020B400002090000020A6
:1009DC00B00000204C0000205000002054000020EB
:1009EC0080B582B000AF78607B68202B00F21C824F
:1009FC0001A252F823F000BF890A0008D10A0008AE
:100A0C00190B0008610B0008A90B0008F10B00087A
:100A1C00390C0008810C0008C90C0008110D0008E5
:100A2C00350E0008350E0008350E0008350E00088E
:100A3C00350E0008350E0008350E0008350E00087E
:100A4C00350E0008350E0008350E0008350E00086E
:100A5C00350E0008350E0008350E0008350E00085E
:100A6C00350E0008350E0008350E0008350E00084E
:100A7C00590D0008A50D0008ED0D000800220121FC
:100A8C00C44801F0EEF800220221C24801F0E9F856
:100A9C0000220421BF4801F0E4F800220821BD48DF
:100AAC0001F0DFF800221021BA4801F0DAF8002238
:100ABC002021B84801F0D5F801224021B54801F0B9
:100ACC00D0F8D5E101220121B24801F0CAF8002288
:100ADC000221B04801F0C5F800220421AD4801F014
:100AEC00C0F801220821AB4801F0BBF8012210210B
:100AFC00A84801F0B6F801222021A64801F0B1F86F
:100B0C0001224021A34801F0ACF8B1E100220121FF
:100B1C00A04801F0A6F8002202219E4801F0A1F89D
:100B2C00012204219B4801F09CF8002208219948DD
:100B3C0001F097F800221021964801F092F801225A
:100B4C002021944801F08DF800224021914801F0B9
:100B5C0088F88DE1002201218E4801F082F80022F4
:100B6C0002218C4801F07DF800220421894801F013
:100B7C0078F800220821874801F073F8012210212F
:100B8C00844801F06EF801222021824801F069F8B6
:100B9C00002240217F4801F064F869E10122012123
:100BAC007C4801F05EF8002202217A4801F059F8E5
:100BBC0000220421774801F054F8012208217548DD
:100BCC0001F04FF801221021724801F04AF800227E
:100BDC002021704801F045F8002240216D4801F0B9
:100BEC0040F845E1002201216A4801F03AF801225F
:100BFC000221684801F035F800220421654801F013
:100C0C0030F800220821634801F02BF80122102152
:100C1C00604801F026F8002220215E4801F021F8FE
:100C2C00002240215B4801F01CF821E10022012147
:100C3C00584801F016F801220221564801F011F82B
:100C4C0000220421534801F00CF8002208215148DD
:100C5C0001F007F8002210214E4801F002F80022A2
:100C6C0020214C4800F0FDFF00224021494800F0B3
:100C7C00F8FFFDE000220121464800F0F2FF0022BF
:100C8C000221444800F0EDFF00220421414800F00D
:100C9C00E8FF012208213F4800F0E3FF0122102168
:100CAC003C4800F0DEFF012220213A4800F0D9FF39
:100CBC0001224021374800F0D4FFD9E00022012165
:100CCC00344800F0CEFF00220221324800F0C9FF68
:100CDC00002204212F4800F0C4FF002208212D48D7
:100CEC0000F0BFFF002210212A4800F0BAFF0022BA
:100CFC002021284800F0B5FF00224021254800F0B3
:100D0C00B0FFB5E000220121224800F0AAFF00222A
:100D1C000221204800F0A5FF002204211D4800F00C
:100D2C00A0FF002208211B4800F09BFF012210218C
:100D3C00184800F096FF00222021164800F091FF81
:100D4C0000224021134800F08CFF91E00022012189
:100D5C00104800F086FF002202210E4800F081FFAF
:100D6C00002204210B4800F07CFF012208210948D5
:100D7C0000F077FF00221021064800F072FF0022DD
:100D8C002021044800F06DFF00224021014800F0B2
:100D9C0068FF6DE0000C014001220121364800F093
:100DAC0060FF00220221344800F05BFF0022042186
:100DBC00314800F056FF012208212F4800F051FF66
:100DCC00012210212C4800F04CFF002220212A483F
:100DDC0000F047FF00224021274800F042FF47E087
:100DEC0000220121244800F03CFF0122022122486C
:100DFC0000F037FF002204211F4800F032FF0022D0
:100E0C0008211D4800F02DFF002210211A4800F087
:100E1C0028FF00222021184800F023FF0122402146
:100E2C00154800F01EFF23E000220121124800F0BB
:100E3C0018FF00220221104800F013FF01220421A8
:100E4C000D4800F00EFF012208210B4800F009FFAD
:100E5C0001221021084800F004FF0022202106483E
:100E6C0000F0FFFE00224021034800F0FAFE00BF14
:100E7C0000BF0837BD4680BD000C014080B582B074
:100E8C0000AF78607B68032B00F28C8001A252F8D3
:100E9C0023F000BFB10E0008F10E0008310F00085E
:100EAC00710F000800224FF400614E4800F0D9FE8B
:100EBC0001224FF480514B4800F0D3FE01224FF435
:100ECC000051484800F0CDFE01224FF480414548C6
:100EDC0000F0C7FE444A7B6852F823301846FFF7EF
:100EEC007FFD7BE001224FF400613E4800F0B9FE2B
:100EFC0000224FF480513B4800F0B3FE01224FF426
:100F0C000051384800F0ADFE01224FF480413548C5
:100F1C0000F0A7FE344A7B6852F823301846FFF7DE
:100F2C005FFD5BE001224FF400612E4800F099FE5A
:100F3C0001224FF480512B4800F093FE00224FF415
:100F4C000051284800F08DFE01224FF480412548C5
:100F5C0000F087FE244A7B6852F823301846FFF7CE
:100F6C003FFD3BE001224FF400611E4800F079FE8A
:100F7C0001224FF480511B4800F073FE01224FF404
:100F8C000051184800F06DFE00224FF480411548C6
:100F9C0000F067FE144A7B6852F823301846FFF7BE
:100FAC001FFD1BE000224FF400610E4800F059FEBB
:100FBC0000224FF480510B4800F053FE00224FF4F6
:100FCC000051084800F04DFE00224FF480410548C6
:100FDC0000F047FE6420FFF703FD00BF00BF083799
:100FEC00BD4680BD000801403C00002080B483B0A9
:100FFC0000AF786039607968254B83FB01239A1028
:10100C00CB17D21A13469B0013445B00CA1A7B6899
:10101C009B1A1F4A82FB03129210DB17D31A1D4A2C
:10102C00136079681A4B83FB01239A10CB17D21AE1
:10103C0013469B0013445B00CA1A164B5A6039685E
:10104C00134B83FB01239A10CB17D21A13469B0028
:10105C0013445B00CA1A3B689B1A0D4A82FB0312AD
:10106C009210DB17D31A0B4A93603968084B83FB39
:10107C0001239A10CB17D21A13469B0013445B0022
:10108C00CA1A044BDA6000BF0C37BD4680BC7047EF
:10109C00676666663C00002080B500AF504B1B684D
:1010AC00012B40F09A804F4B1B68012B40F0838042
:1010BC00642000F0E3F84C4B1B685A1E4A490A6046
:1010CC004A4A1268511E4948016011461846FFF7FA
:1010DC008DFF454B1B68002B34DC454B1B68002BEC
:1010EC000DD0444B1B68404A1360414B00221A60E0
:1010FC00414B00221A60414B01221A6022E03E4B08
:10110C001B68002B0DD03E4B1B68374A1360384BC5
:10111C0001221A60384B00221A60384B00221A60E8
:10112C0010E0364B1B68002B0CD0364B1B682E4A3C
:10113C0013602F4B00221A602F4B01221A602F4B89
:10114C0000221A60294B1B68002B34DC2E4B1B68C9
:10115C00002B0DD0274B1B68244A13602A4B00220E
:10116C001A602A4B00221A60294B01221A6022E0D5
:10117C00264B1B68002B0DD0214B1B681B4A1360A0
:10118C00214B01221A60214B00221A60204B0022B5
:10119C001A6010E01E4B1B68002B0CD0194B1B68FF
:1011AC00124A1360184B00221A60184B01221A6065
:1011BC00174B00221A60174B1B685A1C15490A6002
:1011CC001846FFF75BFE134B1B68032B02DD114B1C
:1011DC0000221A60142000F065F800BF80BD00BF2B
:1011EC00D4000020CC000020580000205C0000201F
:1011FC003400002054000020A0000020A400002097
:10120C004C00002050000020A8000020AC00002062
:10121C0038000020BC00002080B500AF0B4B1B68D1
:10122C00012B11D10A4B1B685A1C09490A6018463C
:10123C00FFF724FE064B1B68032B02DD044B002238
:10124C001A60142000F02EF800BF80BDD4000020DE
:10125C00BC00002080B483B000AF7860054A7B6886
:10126C001360054B00221A6000BF0C37BD4680BCD2
:10127C00704700BFC0000020C400002080B483B0C1
:10128C0000AF7860054A7B681360054B00221A603A
:10129C0000BF0C37BD4680BC704700BFC8000020A3
:1012AC00CC00002080B483B000AF7860054A7B6826
:1012BC001360054B00221A6000BF0C37BD4680BC82
:1012CC00704700BFD0000020D400002080B400AFD5
:1012DC00194B1B68002B0BDD174B1B68013B164A87
:1012EC001360154B1B68002B02D1144B01221A60A2
:1012FC00134B1B68002B0BDD114B1B68013B104A79
:10130C0013600F4B1B68002B02D10E4B01221A608D
:10131C000D4B1B68002B0BDD0B4B1B68013B0A4A6A
:10132C001360094B1B68002B02D1084B01221A6079
:10133C0000BFBD4680BC7047C0000020C400002028
:10134C00C8000020CC000020D0000020D4000020D9
:10135C0080B485B000AF154B9B69144A43F0010370
:10136C009361124B9B6903F00103BB60BB680F4B8D
:10137C00DB690E4A43F08053D3610C4BDB6903F0FD
:10138C0080537B607B680A4B5B68FB60FB6823F0D7
:10139C00E063FB60FB6843F08063FB60044AFB681E
:1013AC00536000BF1437BD4680BC7047001002402C
:1013BC000000014080B584B000AF78607B681B688A
:1013CC00B3F1804F13D10C4BDB690B4A43F0010393
:1013DC00D361094BDB6903F00103FB60FB6800225E
:1013EC0000211C2000F075FA1C2000F08EFA00BFC2
:1013FC001037BD4680BD00BF0010024080B400AF66
:10140C00FEE780B400AFFEE780B400AFFEE780B427
:10141C0000AFFEE780B400AFFEE780B400AF00BFC2
:10142C00BD4680BC704780B400AF00BFBD4680BCD9
:10143C00704780B400AF00BFBD4680BC704780B51C
:10144C0000AF00F053F900BF80BD000080B500AFC5
:10145C00024801F0A3F800BF80BD00BFD8000020F7
:10146C0080B400AF00BFBD4680BC704780B500AFF4
:10147C00FFF712FE5E4B1B68202B3CD0202B51DC5F
:10148C001F2B21D01F2B4DDC002B02D01E2B04D088
:10149C0048E0574B1E221A6045E0564B1B68012B47
:1014AC0002D1534B20221A6000222021524800F016
:1014BC00D8FB01224021504800F0D3FB01228021AF
:1014CC004D4800F0CEFB2EE04C4B1B68012B02D19B
:1014DC00474B1E221A6001222021474800F0C1FB15
:1014EC0000224021444800F0BCFB012280214248EC
:1014FC0000F0B7FB17E0424B1B68012B02D13C4BB1
:10150C001F221A60012220213B4800F0AAFB012275
:10151C004021394800F0A5FB00228021364800F01C
:10152C00A0FB00E000BF374B1B68202B42D0202BC8
:10153C005ADC1F2B24D01F2B56DC002B02D01E2B69
:10154C0004D051E02F4B1E221A604EE02E4B1B682C
:10155C00012B02D12B4B20221A6000224FF48071F8
:10156C00254800F07EFB01224FF40071224800F068
:10157C0078FB01224FF480611F4800F072FB34E0CD
:10158C00224B1B68012B02D11E4B1E221A6001221A
:10159C004FF48071184800F064FB00224FF4007186
:1015AC00154800F05EFB01224FF48061124800F0F8
:1015BC0058FB1AE0164B1B68012B02D1114B1F2252
:1015CC001A6001224FF480710B4800F04AFB012293
:1015DC004FF40071084800F044FB00224FF4806186
:1015EC00054800F03EFB00E000BF00BF80BD00BF1F
:1015FC0098000020A40000200008014034000020C6
:10160C00A00000209C00002038000020A800002032
:10161C00AC0000200C480D490D4A002302E0D458C0
:10162C00C4500433C4188C42F9D30A4A0A4C002320
:10163C0001E013600432A242FBD3FFF711FF01F06B
:10164C00F5FAFEF78FFE7047000000206C000020BA
:10165C00D02C00086C00002024010020FEE70000C4
:10166C0080B500AF084B1B68074A43F010031360AA
:10167C00032000F023F90F2000F008F8FFF768FEB4
:10168C000023184680BD00BF0020024080B582B008
:10169C0000AF7860124B1A68124B1B7819464FF446
:1016AC007A73B3FBF1F3B2FBF3F3184600F03BF99A
:1016BC000346002B01D001230EE07B680F2B0AD8C8
:1016CC00002279684FF0FF3000F003F9064A7B687E
:1016DC001360002300E0012318460837BD4680BD87
:1016EC0060000020680000206400002080B400AF7F
:1016FC00054B1B781A46054B1B681344034A1360B1
:10170C0000BFBD4680BC704768000020200100204F
:10171C0080B400AF024B1B681846BD4680BC7047B6
:10172C002001002080B485B000AF78607B6803F0A6
:10173C000703FB600C4BDB68BB60BA684FF6FF031A
:10174C001340BB60FB681A02BB68134343F0BF63D2
:10175C0043F40033BB60044ABB68D36000BF14374A
:10176C00BD4680BC704700BF00ED00E080B400AF08
:10177C00044BDB681B0A03F007031846BD4680BC0C
:10178C00704700BF00ED00E080B483B000AF0346AB
:10179C00FB7197F90730002B0BDBFB7903F01F0271
:1017AC00064997F907305B09012000FA02F241F86B
:1017BC00232000BF0C37BD4680BC704700E100E021
:1017CC0080B483B000AF03463960FB7197F90730E2
:1017DC00002B0ADB3B68DAB20C4997F9073012018F
:1017EC00D2B20B4483F800230AE03B68DAB2084912
:1017FC00FB7903F00F03043B1201D2B20B441A76AF
:10180C0000BF0C37BD4680BC704700BF00E100E054
:10181C0000ED00E080B489B000AFF860B9607A6088
:10182C00FB6803F00703FB61FB69C3F10703042B9F
:10183C0028BF0423BB61FB690433062B02D9FB6967
:10184C00033B00E000237B614FF0FF32BB6902FADF
:10185C0003F3DA43BB681A407B699A404FF0FF31BF
:10186C007B6901FA03F3D9437B680B401343184699
:10187C002437BD4680BC704780B582B000AF78601D
:10188C007B68013BB3F1807F01D301230FE00A4A4F
:10189C007B68013B53600F214FF0FF30FFF790FF47
:1018AC00054B00229A60044B07221A60002318464D
:1018BC000837BD4680BD00BF10E000E080B582B0A7
:1018CC0000AF78607868FFF72DFF00BF0837BD4682
:1018DC0080BD80B586B000AF0346B9607A60FB73FB
:1018EC0000237B61FFF742FF78617A68B9687869F9
:1018FC00FFF790FF024697F90F3011461846FFF795
:10190C005FFF00BF1837BD4680BD80B582B000AF09
:10191C000346FB7197F907301846FFF735FF00BFF8
:10192C000837BD4680BD80B582B000AF786078685E
:10193C00FFF7A2FF034618460837BD4680BD0000DE
:10194C0080B48BB000AF7860396000237B620023D9
:10195C003B6248E101227B6A02FA03F3FB613B68BC
:10196C001B68FA691340BB61BA69FB699A4240F083
:10197C0037813B685B68A34A93425ED0A14A93428D
:10198C0075D8A14A934258D09F4A93426FD89F4A28
:10199C00934252D09D4A934269D89D4A93424CD06F
:1019AC009B4A934263D89B4A934246D0994A9342AE
:1019BC005DD8122B2AD8122B59D801A252F823F039
:1019CC00471A0008211A0008331A0008751A000873
:1019DC007B1A00087B1A00087B1A00087B1A000887
:1019EC007B1A00087B1A00087B1A00087B1A000877
:1019FC007B1A00087B1A00087B1A00087B1A000867
:101A0C007B1A0008291A00083D1A0008824A9342E2
:101A1C0013D02CE03B68DB683B6229E03B68DB6859
:101A2C0004333B6224E03B68DB6808333B621FE015
:101A3C003B68DB680C333B621AE03B689B68002B0D
:101A4C0002D104233B6213E03B689B68012B05D158
:101A5C0008233B627B68FA691A6109E008233B6240
:101A6C007B68FA695A6103E000233B6200E000BF27
:101A7C00BB69FF2B01D87B6801E07B6804337B6179
:101A8C00BB69FF2B02D87B6A9B0002E07B6A083B98
:101A9C009B003B617B691A680F213B6901FA03F3D8
:101AAC00DB431A40396A3B6901FA03F31A437B6939
:101ABC001A603B685B6803F08053002B00F0908049
:101ACC00564B9B69554A43F001039361534B9B69F9
:101ADC0003F00103BB60BB68514A7B6A9B0802336D
:101AEC0052F82330FB607B6A03F003039B000F2248
:101AFC0002FA03F3DB43FA681340FB607B68494A44
:101B0C0093420DD07B68484A934207D07B68474A82
:101B1C00934201D1022304E0032302E0012300E0FD
:101B2C0000237A6A02F0030292009340FA6813438E
:101B3C00FB603B497B6A9B080233FA6841F823201F
:101B4C003B685B6803F48033002B06D0384B1A6873
:101B5C003749BB6913430B6006E0354B1A68BB6908
:101B6C00DB43334913400B603B685B6803F4003381
:101B7C00002B06D02E4B5A682D49BB6913434B6082
:101B8C0006E02B4B5A68BB69DB43294913404B6079
:101B9C003B685B6803F48013002B06D0244B9A68D7
:101BAC002349BB6913438B6006E0214B9A68BB69E0
:101BBC00DB431F4913408B603B685B6803F40013E5
:101BCC00002B06D01A4BDA681949BB691343CB605A
:101BDC0006E0174BDA68BB69DB4315491340CB6051
:101BEC007B6A01337B623B681A687B6A22FA03F3D7
:101BFC00002B7FF4AFAE00BF00BF2C37BD4680BCBE
:101C0C00704700BF0000321000003110000022109D
:101C1C0000002110000012100000111000100240F2
:101C2C000000014000080140000C01400010014080
:101C3C000004014080B485B000AF78600B467B8017
:101C4C007B689A687B881340002B02D00123FB73BE
:101C5C0001E00023FB73FB7B18461437BD4680BCA8
:101C6C00704780B483B000AF78600B467B8013461E
:101C7C007B707B78002B03D07A887B681A6103E039
:101C8C007B881A047B681A6100BF0C37BD4680BC88
:101C9C007047000080B586B000AF78607B68002B81
:101CAC0001D101236CE27B681B6803F00103002B5C
:101CBC0000F08780924B5B6803F00C03042B0CD074
:101CCC008F4B5B6803F00C03082B12D18C4B5B68B9
:101CDC0003F48033B3F5803F0BD1894B1B6803F4BD
:101CEC000033002B6CD07B685B68002B68D1012320
:101CFC0046E27B685B68B3F5803F06D1804B1B687E
:101D0C007F4A43F4803313602EE07B685B68002BC2
:101D1C000CD17B4B1B687A4A23F480331360784BCD
:101D2C001B68774A23F4802313601DE07B685B6893
:101D3C00B3F5A02F0CD1724B1B68714A43F480236E
:101D4C0013606F4B1B686E4A43F4803313600BE0D7
:101D5C006B4B1B686A4A23F480331360684B1B6817
:101D6C00674A23F4802313607B685B68002B13D0D5
:101D7C00FFF7CEFC386108E0FFF7CAFC02463B696E
:101D8C00D31A642B01D90323FAE15D4B1B6803F4CE
:101D9C000033002BF0D014E0FFF7BAFC386108E0F8
:101DAC00FFF7B6FC02463B69D31A642B01D9032317
:101DBC00E6E1534B1B6803F40033002BF0D100E039
:101DCC0000BF7B681B6803F00203002B63D04C4BF5
:101DDC005B6803F00C03002B0BD0494B5B6803F0E2
:101DEC000C03082B1CD1464B5B6803F48033002B8F
:101DFC0016D1434B1B6803F00203002B05D07B6804
:101E0C001B69012B01D00123BAE13D4B1B6823F068
:101E1C00F8027B685B69DB00394913430B603AE0DD
:101E2C007B681B69002B20D0364B01221A60FFF710
:101E3C006FFC386108E0FFF76BFC02463B69D31A74
:101E4C00022B01D903239BE12D4B1B6803F00203EA
:101E5C00002BF0D02A4B1B6823F0F8027B685B69DF
:101E6C00DB00274913430B6015E0264B00221A6058
:101E7C00FFF74EFC386108E0FFF74AFC02463B696D
:101E8C00D31A022B01D903237AE11D4B1B6803F0F3
:101E9C000203002BF0D17B681B6803F00803002BB6
:101EAC003AD07B689B69002B19D0174B01221A6022
:101EBC00FFF72EFC386108E0FFF72AFC02463B696D
:101ECC00D31A022B01D903235AE10D4B5B6A03F0A1
:101EDC000203002BF0D0012000F0A6FA1CE00A4B04
:101EEC0000221A60FFF714FC38610FE0FFF710FCBA
:101EFC0002463B69D31A022B08D9032340E100BFE9
:101F0C000010024000004242800442429E4B5B6A39
:101F1C0003F00203002BE9D17B681B6803F0040378
:101F2C00002B00F0A6800023FB75974BDB6903F0B8
:101F3C008053002B0DD1944BDB69934A43F08053B3
:101F4C00D361914BDB6903F08053BB60BB68012309
:101F5C00FB758E4B1B6803F48073002B18D18B4BD5
:101F6C001B688A4A43F480731360FFF7D1FB386116
:101F7C0008E0FFF7CDFB02463B69D31A642B01D96D
:101F8C000323FDE0814B1B6803F48073002BF0D01E
:101F9C007B68DB68012B06D17B4B1B6A7A4A43F0CA
:101FAC00010313622DE07B68DB68002B0CD1764BB0
:101FBC001B6A754A23F001031362734B1B6A724A46
:101FCC0023F0040313621CE07B68DB68052B0CD147
:101FDC006D4B1B6A6C4A43F0040313626A4B1B6A19
:101FEC00694A43F0010313620BE0674B1B6A664AB4
:101FFC0023F001031362644B1B6A634A23F004034E
:10200C0013627B68DB68002B15D0FFF781FB38610E
:10201C000AE0FFF77DFB02463B69D31A41F2883296
:10202C00934201D90323ABE0574B1B6A03F0020325
:10203C00002BEED014E0FFF76BFB38610AE0FFF7E2
:10204C0067FB02463B69D31A41F28832934201D9AD
:10205C00032395E04C4B1B6A03F00203002BEED1DB
:10206C00FB7D012B05D1484BDB69474A23F080539C
:10207C00D3617B68DB69002B00F08180424B5B688D
:10208C0003F00C03082B61D07B68DB69022B46D173
:10209C003F4B00221A60FFF73BFB386108E0FFF76B
:1020AC0037FB02463B69D31A022B01D9032367E0A5
:1020BC00354B1B6803F00073002BF0D17B681B6A57
:1020CC00B3F5803F08D1304B5B6823F400327B685A
:1020DC009B682D4913434B602B4B5B6823F47412A4
:1020EC007B68196A7B685B6A0B43274913434B6017
:1020FC00274B01221A60FFF70BFB386108E0FFF752
:10210C0007FB02463B69D31A022B01D9032337E0A4
:10211C001D4B1B6803F00073002BF0D02FE01C4B01
:10212C0000221A60FFF7F4FA386108E0FFF7F0FAC2
:10213C0002463B69D31A022B01D9032320E0124B30
:10214C001B6803F00073002BF0D118E07B68DB698F
:10215C00012B01D1012313E00B4B5B68FB60FB6887
:10216C0003F480327B681B6A9A4206D1FB6803F445
:10217C0070127B685B6A9A4201D0012300E0002355
:10218C0018461837BD4680BD001002400070004054
:10219C006000424280B584B000AF786039607B68E3
:1021AC00002B01D10123D0E06A4B1B6803F007031D
:1021BC003A689A4210D9674B1B6823F007026549AD
:1021CC003B6813430B60634B1B6803F007033A68CF
:1021DC009A4201D00123B8E07B681B6803F002032C
:1021EC00002B20D07B681B6803F00403002B05D068
:1021FC00594B5B68584A43F4E06353607B681B6837
:10220C0003F00803002B05D0534B5B68524A43F490
:10221C0060535360504B5B6823F0F0027B689B6803
:10222C004D4913434B607B681B6803F00103002B83
:10223C0040D07B685B68012B07D1474B1B6803F4CC
:10224C000033002B15D101237FE07B685B68022BE8
:10225C0007D1414B1B6803F00073002B09D10123FC
:10226C0073E03D4B1B6803F00203002B01D10123EB
:10227C006BE0394B5B6823F003027B685B68364983
:10228C0013434B60FFF744FAF8600AE0FFF740FA9B
:10229C000246FB68D31A41F28832934201D90323D8
:1022AC0053E02D4B5B6803F00C027B685B689B0072
:1022BC009A42EBD1274B1B6803F007033A689A420A
:1022CC0010D2244B1B6823F0070222493B681343AE
:1022DC000B60204B1B6803F007033A689A4201D04D
:1022EC00012332E07B681B6803F00403002B08D049
:1022FC00194B5B6823F4E0627B68DB681649134377
:10230C004B607B681B6803F00803002B09D0124B51
:10231C005B6823F460527B681B69DB000E49134336
:10232C004B6000F021F802460B4B5B681B0903F075
:10233C000F030A49CB5C22FA03F3094A1360094BD9
:10234C001B681846FFF7A2F9002318461037BD4644
:10235C0080BD00BF0020024000100240B82C0008D5
:10236C00600000206400002090B48AB000AF2A4BBB
:10237C003C1D0FCB84E80F0040F201233B8000236F
:10238C00FB610023BB6100237B6200237B61002384
:10239C003B62224B5B68FB61FB6903F00C03042B73
:1023AC0002D0082B03D02DE01D4B3B622DE0FB69C6
:1023BC009B0C03F00F0307F12802134413F8243C81
:1023CC007B61FB6903F48033002B13D0134B5B68E8
:1023DC005B0C03F0010307F12802134413F8283CAB
:1023EC00BB617B690E4A02FB03F2BB69B2FBF3F3E0
:1023FC007B6204E07B690B4A02FB03F37B627B6A22
:10240C003B6202E0064B3B6200BF3B6A1846283732
:10241C00BD4690BC704700BFA82C000800100240BD
:10242C0000127A0000093D0080B485B000AF7860DE
:10243C000A4B1B680A4AA2FB03235B0A7A6802FB5D
:10244C0003F3FB6000BFFB685A1EFA60002BF9D146
:10245C0000BF00BF1437BD4680BC70476000002031
:10246C00D34D621080B582B000AF78607B68002BD2
:10247C0001D1012341E07B6893F83D30DBB2002BA6
:10248C0006D17B68002283F83C207868FEF792FF27
:10249C007B68022283F83D207B681A687B680433D2
:1024AC001946104600F06AFA7B68012283F8462030
:1024BC007B68012283F83E207B68012283F83F2051
:1024CC007B68012283F840207B68012283F841203D
:1024DC007B68012283F842207B68012283F8432029
:1024EC007B68012283F844207B68012283F8452015
:1024FC007B68012283F83D20002318460837BD462F
:10250C0080BD000080B485B000AF78607B6893F824
:10251C003D30DBB2012B01D0012335E07B68022278
:10252C0083F83D207B681B68DA687B681B6842F087
:10253C000102DA607B681B68164A934209D07B68FB
:10254C001B68B3F1804F04D07B681B68124A93421E
:10255C0011D17B681B689B6803F00703FB60FB6869
:10256C00062B10D07B681B681A687B681B6842F0CE
:10257C0001021A6007E07B681B681A687B681B689D
:10258C0042F001021A60002318461437BD4680BC85
:10259C00704700BF002C01400004004080B582B0A1
:1025AC0000AF78607B681B681B6903F00203022B89
:1025BC0022D17B681B68DB6803F00203022B1BD162
:1025CC007B681B686FF002021A617B6801221A7724
:1025DC007B681B689B6903F00303002B03D07868AE
:1025EC0000F0B1F905E0786800F0A4F9786800F023
:1025FC00B3F97B6800221A777B681B681B6903F0B0
:10260C000403042B22D17B681B68DB6803F00403F2
:10261C00042B1BD17B681B686FF004021A617B686A
:10262C0002221A777B681B689B6903F44073002BAA
:10263C0003D0786800F087F905E0786800F07AF943
:10264C00786800F089F97B6800221A777B681B6830
:10265C001B6903F00803082B22D17B681B68DB681D
:10266C0003F00803082B1BD17B681B686FF0080272
:10267C001A617B6804221A777B681B68DB6903F09C
:10268C000303002B03D0786800F05DF905E078684F
:10269C0000F050F9786800F05FF97B6800221A7737
:1026AC007B681B681B6903F01003102B22D17B681D
:1026BC001B68DB6803F01003102B1BD17B681B68B5
:1026CC006FF010021A617B6808221A777B681B680E
:1026DC00DB6903F44073002B03D0786800F033F906
:1026EC0005E0786800F026F9786800F035F97B6829
:1026FC0000221A777B681B681B6903F00103012B0E
:10270C000ED17B681B68DB6803F00103012B07D13A
:10271C007B681B686FF001021A617868FDF726FF71
:10272C007B681B681B6903F08003802B0ED17B68D0
:10273C001B68DB6803F08003802B07D17B681B6868
:10274C006FF080021A61786800F067FA7B681B688A
:10275C001B6903F04003402B0ED17B681B68DB68C0
:10276C0003F04003402B07D17B681B686FF04002DD
:10277C001A61786800F0F9F87B681B681B6903F034
:10278C002003202B0ED17B681B68DB6803F0200331
:10279C00202B07D17B681B686FF020021A617868C8
:1027AC0000F032FA00BF0837BD4680BD80B584B05A
:1027BC0000AF786039607B6893F83C30012B01D115
:1027CC000223B3E07B68012283F83C207B68022261
:1027DC0083F83D207B681B689B68FB60FB6823F0DB
:1027EC007703FB60FB6823F47F43FB607B681B680B
:1027FC00FA689A603B681B68B3F5005F3ED0B3F58E
:10280C00005F00F28780B3F5805F00F08580B3F540
:10281C00805F7FD8702B1AD0702B7BD8602B50D058
:10282C00602B77D8502B3CD0502B73D8402B58D0E2
:10283C00402B6FD8302B64D0302B6BD8202B60D032
:10284C00202B67D8002B5CD0102B5AD062E07B6811
:10285C0018683B6899683B685A683B68DB6800F00D
:10286C005CF97B681B689B68FB60FB6843F0770333
:10287C00FB607B681B68FA689A604EE07B6818689E
:10288C003B6899683B685A683B68DB6800F045F91F
:10289C007B681B689A687B681B6842F480429A606C
:1028AC003BE07B6818683B6859683B68DB681A46F4
:1028BC0000F0BCF87B681B685021184600F013F937
:1028CC002BE07B6818683B6859683B68DB681A46E4
:1028DC0000F0DAF87B681B686021184600F003F9F9
:1028EC001BE07B6818683B6859683B68DB681A46D4
:1028FC0000F09CF87B681B684021184600F0F3F848
:10290C000BE07B681A683B681B681946104600F0A0
:10291C00EAF802E000BF00E000BF7B68012283F808
:10292C003D207B68002283F83C200023184610379A
:10293C00BD4680BD80B483B000AF786000BF0C375B
:10294C00BD4680BC704780B483B000AF786000BFD8
:10295C000C37BD4680BC704780B483B000AF786044
:10296C0000BF0C37BD4680BC704780B483B000AF4D
:10297C00786000BF0C37BD4680BC704780B485B012
:10298C0000AF786039607B681B68FB607B68254A08
:10299C00934207D07B68B3F1804F03D07B68224A07
:1029AC00934208D1FB6823F07003FB603B685B68C3
:1029BC00FA681343FB607B681A4A934207D07B6822
:1029CC00B3F1804F03D07B68174A934208D1FB6860
:1029DC0023F44073FB603B68DB68FA681343FB60CD
:1029EC00FB6823F080023B685B691343FB607B68E8
:1029FC00FA681A603B689A687B68DA623B681A6806
:102A0C007B689A627B68074A934203D13B681A69D8
:102A1C007B681A637B6801225A6100BF1437BD467C
:102A2C0080BC7047002C01400004004080B487B08B
:102A3C0000AFF860B9607A60FB681B6A7B61FB6869
:102A4C001B6A23F00102FB681A62FB689B693B61FD
:102A5C003B6923F0F0033B617B681B013A6913432C
:102A6C003B617B6923F00A037B617A69BB68134382
:102A7C007B61FB683A699A61FB687A691A6200BFEC
:102A8C001C37BD4680BC704780B487B000AFF8607F
:102A9C00B9607A60FB681B6A23F01002FB681A624B
:102AAC00FB689B697B61FB681B6A3B617B6923F458
:102ABC0070437B617B681B037A6913437B613B69C1
:102ACC0023F0A0033B61BB681B013A6913433B61D4
:102ADC00FB687A699A61FB683A691A6200BF1C3715
:102AEC00BD4680BC704780B485B000AF786039605B
:102AFC007B689B68FB60FB6823F07003FB603A68A3
:102B0C00FB68134343F00703FB607B68FA689A6029
:102B1C0000BF1437BD4680BC704780B487B000AF8F
:102B2C00F860B9607A603B60FB689B687B617B698D
:102B3C0023F47F437B613B681A027B681A43BB68B2
:102B4C0013437A6913437B61FB687A699A6000BF0F
:102B5C001C37BD4680BC704780B485B000AF786030
:102B6C0039607B6893F83C30012B01D1022341E0A2
:102B7C007B68012283F83C207B68022283F83D208D
:102B8C007B681B685B68FB607B681B689B68BB6031
:102B9C00FB6823F07003FB603B681B68FA68134307
:102BAC00FB607B681B68FA685A607B681B68144A78
:102BBC00934209D07B681B68B3F1804F04D07B68CB
:102BCC001B68104A93420CD1BB6823F08003BB6096
:102BDC003B685B68BA681343BB607B681B68BA6868
:102BEC009A607B68012283F83D207B68002283F881
:102BFC003C20002318461437BD4680BC704700BFEC
:102C0C00002C01400004004080B483B000AF786019
:102C1C0000BF0C37BD4680BC704780B483B000AF9A
:102C2C00786000BF0C37BD4680BC704770B500267D
:102C3C000C4D0D4C641BA410A64209D100F022F8D7
:102C4C0000260A4D0A4C641BA410A64205D170BD87
:102C5C0055F8043B98470136EEE755F8043B984786
:102C6C000136F2E7C82C0008C82C0008C82C000854
:102C7C00CC2C000803460244934200D1704703F861
:102C8C00011BF9E7F8B500BFF8BC08BC9E467047BD
:0C2C9C00F8B500BFF8BC08BC9E467047AD
:102CA80002030405060708090A0B0C0D0E0F101085
:102CB80000000000000000000102030406070809E4
:042CC80031010008CE
:042CCC000D010008EE
:102CD00001000000010000000100000001000000F0
:102CE00001000000010000000100000001000000E0
:102CF00001000000010000000100000001000000D0
:102D0000F4010000010000000100000000000000CC
:102D100005000000000000000300000005000000A6
:102D20000200000003000000050000000300000096
:0C2D30000024F40010000000010000006E
:0400000508001621B8
:00000001FF
